:020000040800F2
:10000000500400209D010008831100080111000820
:100010008111000809020008BB140008000000005C
:100020000000000000000000000000002512000891
:100030000B02000800000000A511000827120008AC
:10004000B7010008B7010008B7010008B7010008B0
:10005000B7010008B7010008B7010008B7010008A0
:10006000B7010008B7010008B7010008B701000890
:10007000B7010008B7010008B7010008B701000880
:10008000B7010008B7010008B7010008B701000870
:10009000B7010008B7010008B7010008B701000860
:1000A000B7010008B7010008B7010008B701000850
:1000B000BD120008B7010008B7010008B701000829
:1000C000B7010008B7010008B7010008B701000830
:1000D000B7010008B7010008B7010008B701000820
:1000E000B7010008B7010008B7010008B701000810
:1000F000B7010008B7010008B7010008B701000800
:10010000B7010008B7010008B7010008B7010008EF
:10011000B7010008B7010008B7010008B7010008DF
:10012000B7010008B7010008B7010008B7010008CF
:10013000B7010008B7010008B7010008B7010008BF
:10014000B7010008B7010008B7010008B7010008AF
:10015000B7010008B7010008B7010008B70100089F
:10016000B7010008B7010008B7010008B70100088F
:10017000B7010008B7010008B7010008000000003F
:10018000B7010008B7010008DFF80CD000F02AF82A
:1001900000480047DD14000850040020064880474E
:1001A00006480047FEE7FEE7FEE7FEE7FEE7FEE75C
:1001B000FEE7FEE7FEE7FEE7791200088901000886
:1001C000D2B201E000F8012B491EFBD27047002299
:1001D000F6E710B513460A4604461946FFF7F0FF46
:1001E000204610BD064C074D06E0E06840F00103D4
:1001F00094E8070098471034AC42F6D3FFF7C8FFE5
:100200006815000888150008FEE770472DE9F84FCB
:10021000DFF898B100234FF0010C4FF0030A4FF0C4
:100220000F090BF1040EB9E00CFA03F4224070D070
:100230004D68022D01D0122D0ED1DD0800EB85088E
:10024000D8F820505E07F70E09FA07F6B5430E6995
:10025000BE402E43C8F8206007685E0091F8048015
:100260000AFA06F508F00308AF4308FA06F848EA68
:100270000708C0F800804F68012F05D0022F03D077
:10028000112F01D0122F13D1D0F80880CF6828EA9F
:100290000508B74047EA08078760D0F804800F795F
:1002A00028EA0408C7F300179F4047EA0807476099
:1002B000D1F804806FEA0807BF0706D1C76AA743D1
:1002C000C8F3C0049C403C43C462C468AC438D681E
:1002D000B5402543C5604C68E4005ED5344C256EBE
:1002E00045F001052566246E23F0030504F00104A2
:1002F0000094304C2E19B4689D072F0F09FA07F5AA
:10030000AC43B0F1904F05D02B4DA84204D101254C
:100310001CE042E0002519E0284DA84201D1022549
:1003200014E0274DA84201D103250FE0254DA84236
:1003300001D104250AE0244DA84201D1052505E09C
:10034000224DA84201D1062500E00725BD402543E6
:10035000B560DBF800405D464E689443F60300D577
:1003600014432C60DEF8004075464E689443B60393
:1003700000D514432C600D4D08352C684E6894430D
:10038000F60200D514432C60084D0C352C684E68DD
:100390009443B60200D514432C605B1C0A6832FA01
:1003A00003F57FF441AF00F013B8000000040140F2
:1003B000001002400000014000040048000800480E
:1003C000000C0048001000480014004800180048C5
:1003D00018BCBDE8E08F00000148006870470000CD
:1003E0000800002002480168491C016070470000B5
:1003F0000800002010B50024032000F065F800205C
:1004000000F008F808B1012401E000F01BF82046D4
:1004100010BD000070B5054609484FF47A710024FC
:100420000068B0FBF1F000F0ADFB08B1012404E07E
:1004300000222946501E00F027F8204670BD00001B
:100440000C000020094808B5016E41F00101016669
:10045000016E01F001010091816D41F080518165D3
:10046000806D00F08050009008BD00000010024038
:1004700000F01F02012191404009800000F1E020BE
:10048000C0F8001170470000F0B40E4B1B680C461A
:10049000C3F30223C3F10705042D00D90425191D58
:1004A000072901D2002300E0DB1E012606FA05F130
:1004B000491E214099409E40761E16403143F0BCB3
:1004C00000F060BE0CED00E0064900F0070208688D
:1004D0004FF6FF03184040EA0220034A1043086029
:1004E000704700000CED00E00000FA051649B0F579
:1004F000007F0868C0F3412009D0022805D00868B1
:1005000020F4C06040F4806008600020704701283B
:10051000FBD0086820F4C06040F4007008600B480D
:100520003222006850430A4AB0FBF2F0401C00E05F
:10053000401E4A69520501D50028F9D14869400595
:10054000E3D5032070470000007000400C0000203D
:1005500040420F000248006800F4C060704700008D
:10056000007000402DE9F0470F46050058D03F4E7F
:10057000306800F00700B84209D2306820F0070068
:1005800038433060306800F00700B84248D128781E
:10059000374CC0072CD06868032811D0022812D02D
:1005A000216898B1490500293ADAA16821F00301D0
:1005B0000143A160FFF710FF804641F2883910E047
:1005C00021688901EFE721688903ECE78907EAE7F9
:1005D000FFF702FFA0EB0801494502D90320BDE85F
:1005E000F087A068696800F00C00B0EB810FEFD1D4
:1005F0002878800705D5A068A96820F0F000084396
:10060000A060306800F00700B8420BD9306820F0D5
:10061000070038433060306800F00700B84201D06E
:100620000120DCE72878400705D5A068E96820F4B8
:10063000E0600843A0602878000706D5A068296913
:1006400020F4605040EAC100A06000F017F8A168F3
:10065000084AC1F30311515C01F01F01C84006496B
:100660000860BDE8F0470020FFF7D4BE002002403C
:1006700000100240281500080C00002070B5254924
:10068000002318468A68CC6812F00C0204F00306B6
:10069000214C4FEA640509D00C2A05D0042A26D043
:1006A000082A00D1284670BD012E10D10B681B0707
:1006B00004D4D1F89430C3F3032302E00B68C3F3EE
:1006C0000313164E56F823307AB10C2AEBD1C868C2
:1006D00000F00302C868C0F30210401C022A08D0D0
:1006E000032A09D0B3FBF0F008E0184670BD20469D
:1006F00070BDB4FBF0F001E0B5FBF0F0CA68C9686A
:10070000C2F306225043C1F34161491C4900B0FBCA
:10071000F1F070BD001002400024F400381500080C
:100720002DE9F84305007CD0FD4CA06800F00C06D4
:10073000E06800F003072878C00661D576B10C2E7A
:1007400001D1012F0AD0A8690028206878D040F094
:1007500001002060FFF740FE804659E020688007D6
:1007600002D5A8690028DED0286A2168090703D5C8
:10077000216801F0F00104E0D4F89410F02202EABC
:100780001111884215D900F00FFD002849D12068C9
:1007900040F0080020602068296A20F0F00008433B
:1007A00020606068E96920F47F4040EA01206060D1
:1007B00015E0206840F0080020602068296A20F0D9
:1007C000F000084320606068E96920F47F4040EA57
:1007D00001206060286A00F0E7FC0028D6D1FFF70E
:1007E0004DFFA168CF4AC1F30311515C01F01F0115
:1007F000C840CD4908600020FFF70CFE00287DD1DD
:100800002FE000BFFFF7E8FDA0EB0800022876D834
:1008100020688007F6D5206840F008002060206836
:1008200001E0BBE00CE0296A20F0F0000843206002
:100830006068E96920F47F4040EA0120606010E0D0
:1008400020F001002060FFF7C7FD804606E000BFF2
:10085000FFF7C2FDA0EB08000228D8D82068800767
:10086000F6D42878C00740D0082E18D00C2E01D11D
:10087000032F14D06868B0F5803F17D0B0F5A02FD3
:10088000206817D020F480302060206820F4802079
:1008900020606868E0B1FFF79FFD804614E02068A3
:1008A000800322D56868002878D01EE0206840F4D4
:1008B0008030EDE740F480202060F7E7FFF78CFD03
:1008C000A0EB08006428A2D820688003F6D50CE0CD
:1008D000FFF782FD804605E0FFF77EFDA0EB0800F4
:1008E000642894D820688003F6D4287880073BD504
:1008F000042E11D00C2E04D1022F01E036E1A1E02C
:100900000AD0E868002820681ED040F4807020607B
:10091000FFF762FD07460CE0206840050CD5E8684B
:100920000028C1D008E000BFFFF756FDC01B022819
:1009300093D820684005F7D56068297C20F0F850EE
:1009400040EA016060600FE020F480702060FFF7F3
:1009500043FD074605E000BFFFF73EFDC01B022830
:1009600070D820684005F7D42878000729D5686931
:100970000028D4F8940012D040F00100C4F894008C
:10098000FFF72AFD074604E0FFF726FDC01B0228FB
:1009900058D8D4F894008007F6D512E0EDE020F0A6
:1009A0000100C4F89400FFF717FD074605E000BFFB
:1009B000FFF712FDC01B022844D8D4F8940080072A
:1009C000F6D42878400768D5A06D0027C00008D469
:1009D000A06D40F08050A065A06D012700F0805010
:1009E000009052480168C90512D40168814641F45B
:1009F00080710160FFF7F0FC804605E0FFF7ECFC3A
:100A0000A0EB080002281DD8D9F80000C005F5D5D4
:100A1000A868012817D00528D4F8900018D020F035
:100A20000100C4F89000D4F8900020F0040000BF4A
:100A3000C4F89000A86841F28839D0B1FFF7CCFC27
:100A4000804611E06BE0D4F8900040F00100EFE741
:100A500040F00400C4F89000F5E700BFFFF7BCFCCD
:100A6000A0EB080149455AD8D4F890008007F5D585
:100A70000EE0FFF7B1FC804606E000BFFFF7ACFCDC
:100A8000A0EB0801494570D8D4F890008007F5D450
:100A90001FB1A06D20F08050A065A86AF0B30C2EA5
:100AA0006BD00228206820F08070206004D020687D
:100AB00010F0205F47D04AE0FFF78EFC064604E0C6
:100AC000FFF78AFC801B02284FD820688001F7D4EA
:100AD000286BE96A000110380843696BAA6B0902A8
:100AE000120941EA42410843A98F114A490802EB21
:100AF0004151084395F840104908120102EB416149
:100B00000843E060206840F080702060E06840F0BA
:100B10008070E060FFF760FC054610E02BE024E009
:100B200000100240281500080C0000200070004052
:100B30000000E0FFFFF750FC401B022815D820689A
:100B40008001F7D517E0E06820F00300E060E0687E
:100B50000B490840E060FFF73FFC054608E000BF96
:100B6000FFF73AFC401B022802D90320BDE8F883B6
:100B700020688001F4D40020F8E70120F6E70000A7
:100B8000FFFFEEFE10B5401EB0F1807F01D30120C3
:100B900010BD4FF0E02460610F21601700F0F2FA01
:100BA0000020A06107202061002010BD7047704721
:100BB0007047000070B590F83C20012A24D0012431
:100BC00080F83C40022280F83D2002685368956816
:100BD0000E4EB24202D00E4EB24203D123F4700642
:100BE0004B68334323F070060B688968334325F064
:100BF0008005294353600268916080F83D400021E0
:100C000080F83C10084670BD022070BD002C0140E9
:100C10000034014010B5040003D094F83D0010B139
:100C200007E0012010BD002084F83C00204600F0C1
:100C30000DF8022084F83D00211D206800F044FBDF
:100C4000012084F83D00002010BD000010B586B0E2
:100C5000044614216846FFF7BAFA2068B0F1804FC5
:100C600025D11448816D41F001018165816D01F04C
:100C700001010591C16C41F00101C164C06C022108
:100C800000F0010005900120CDE900010021029152
:100C9000CDE9031069464FF09040FFF7B7FA002204
:100CA00011461C20FFF7F0FB1C20FFF7E1FB06B00C
:100CB00010BD00000010024070B5044690F83C00E2
:100CC000012817D0012584F83C50022084F83D000B
:100CD00020688268324E324022F47F428260086887
:100CE000502839D00DDC202855D005DC98B31028C9
:100CF00043D150E0022070BD30284CD040283CD178
:100D000041E0602830D070280CD0B0F5805F03D06F
:100D1000B0F5005F31D112E020688168204A70325E
:100D2000114016E0CB68D1E90121206800F039FBC1
:100D300021688868304040F0770088601DE0CB680B
:100D4000D1E90121206800F02CFB2068816841F482
:100D50008041816011E01EE0CA684968206800F0A7
:100D600032FB5021206806E0CA684968206800F01C
:100D700077FB6021206800F01EFB84F83D500020C6
:100D800084F83C0070BDCA684968206800F01BFB0D
:100D900040212068EFE7226801461046EBE700009B
:100DA00088FFFEFF0068B0F1804F02D1406A014920
:100DB00048607047000000202DE9F041044690F89B
:100DC0003C000D4601283DD0012684F83C600220FD
:100DD00084F83D00AAB3042A46D02068082A55D0DA
:100DE000D5E90027E968036A23F480530362D0F849
:100DF0001CC0036A2CF4407C4CEA07274FF6FF7CAA
:100E000027F470470CEA013139434FF4204723F4AB
:100E1000204307EA02321A43C16102622068C169B5
:100E200021F44061C1612068C169AA6841EA0221D8
:100E3000C0F81C1084F83D60002084F83C00BDE838
:100E4000F08101E00220FAE7D5E90012EB682068A2
:100E500000F0CAFA2068816921F00C0181612068E4
:100E60008169AA6811430FE0D5E90012EB68206898
:100E700000F008FB2068816921F4406181612068ED
:100E80008169AA6841EA02218161D3E7D5E9002C92
:100E90002F7B016A21F480710162C169036A21F02C
:100EA000030141EA0C0121F0F00C39074FF42067EF
:100EB0004CEA116123F4206307EA02221A43C1615C
:100EC00002622068C16921F00C01C1612068C1691A
:100ED000AA681143ACE710B5040003D094F83D00B4
:100EE00010B107E0012010BD002084F83C0020462E
:100EF00000F00CF8022084F83D00211D206800F06D
:100F0000E3F9012084F83D00002010BD7047000087
:100F100010B50268044631B1042908D008291FD051
:100F20000C2908D120E0D06840F0020002E0D0682F
:100F300040F00400D0600122206800F025FA20680B
:100F400082680B490A40062A08D082680A40B2F536
:100F5000803F03D0016841F001010160002010BD15
:100F6000D06840F00800E5E7D06840F01000E1E705
:100F70000700010070B50446006801694FF00005E4
:100F8000C943890715D4C168C943890711D4E91E2B
:100F9000016101202077206880698007204602D007
:100FA000FFF700FF04E000F0A7F8204600F0A5F8E6
:100FB000257720680169C943490717D4C168C94327
:100FC000490713D46FF004010161022020772068E3
:100FD000806910F4407F204602D0FFF7E3FE04E072
:100FE00000F08AF8204600F088F82577206801692B
:100FF000C943090716D4C168C943090712D46FF061
:1010000008010161042020772068C069800720461C
:1010100002D0FFF7C7FE04E000F06EF8204600F0B3
:101020006CF8257720680169C943C90617D4C168DF
:10103000C943C90613D46FF010010161082020775D
:101040002068C06910F4407F204602D0FFF7AAFE56
:1010500004E000F051F8204600F04FF825772068B2
:101060000169C943C90708D1C168C943C90704D187
:10107000891E0161204600F041F820680169C943DA
:10108000090609D4C168C943090605D46FF0800177
:1010900001612046FFF78BFD20680169C943C9053E
:1010A00009D4C168C943090605D46FF48071016190
:1010B0002046FFF77BFD20680169C943490609D432
:1010C000C168C943490605D46FF04001016120465B
:1010D00000F015F820680169C94389060BD4C1687E
:1010E000C943890607D46FF0200101612046BDE89D
:1010F0007040FFF75DBD70BD704770477047704727
:10110000FEE7000010B58CB0002405941A48049442
:101110000694079408940A94099400940194029404
:101120004FF08041039401604FF47A51C0E90114FB
:101130001249C0E903148461FFF76CFD4FF480503D
:10114000049004A90C48FFF7B7FD0B48FFF7C3FE56
:10115000089408A908480A94FFF72CFD0120CDE95E
:1011600000400F20CDE90240002269460248FFF707
:1011700023FE0CB010BD000010000020A08601006E
:10118000FEE770470907090E002806DA00F00F0095
:1011900000F1E02080F8141D704700F1E02080F895
:1011A0000014704770470000F8B51C4D0646002437
:1011B000A86DC00002D5FFF7CDF90DE0A86D40F095
:1011C0008050A865A86D00F080500090FFF7C2F92C
:1011D000A96D21F08051A965B0F5007F04D0802E63
:1011E00007D94FF003040AE0802E08D9A02E01D8B9
:1011F00004E001D1022402E0702E00D1012408484D
:10120000016821F0070121430160006800F0070038
:10121000A04201D00120F8BD0020F8BD001002401E
:10122000002002407047FFF7DDB810B596B04421AA
:101230006846FEF7CCFF142111A8FEF7C8FF102066
:10124000009000240120CDE90604602008900A9453
:101250006846FFF765FA0F20CDE911041394149442
:10126000002111A81594FFF77DF94FF40070FFF7E6
:101270003DF916B010BD00000D48016841F4700141
:1012800001600C48016841F00101016000218160AA
:101290000268094B1A4002608214C260026822F49C
:1012A0008022026081610249C00380390860704772
:1012B00088ED00E000100240FFFFF6EA0148FFF76A
:1012C00059BE0000100000202DE9F0470268264BAF
:1012D000264D274E274F284C4FF0804A984209D080
:1012E000504507D0A84205D0B04203D0B84201D043
:1012F000A04204D122F0700C4A6842EA0C02DFF8E6
:101300007CC0DFF87C80DFF87C9098420FD050459D
:101310000DD0A8420BD0B04209D0B84207D0A042AD
:1013200005D0604503D0404501D0484503D122F4A3
:101330004075CA682A434D6922F080022A43026040
:101340008A68C2620A688262984207D0A04205D0C9
:10135000604503D0404501D0484501D1096901638A
:1013600001214161BDE8F087002C014000040040EC
:1013700000080040000C00400034014000400140E3
:10138000004401400048014010B501F01F03012155
:10139000046A99408C430462016A9A4011430162D5
:1013A00010BD10B5846842EA032224F47F440A4346
:1013B0002243826010BD826822F070020A4342F02C
:1013C00007018160704710B5036A046A24F00104C4
:1013D0000462846924F0F00444EA021423F00A024F
:1013E0000A438461026210BD70B5046A24F00104EE
:1013F00004628469056A144EB04211D0B0F1804F86
:101400000ED0124EB0420BD0114EB04208D0114E49
:10141000B04205D0104EB04202D0104EB04203D1BF
:1014200024F00304144301E044F001041A0724F0FB
:10143000F00444EA126225F00A0301F00A0119439C
:101440008261016270BD0000002C01400004004078
:1014500000080040000C0040003401400040014002
:1014600010B5036A23F0100303628369046A23F44E
:10147000704343EA023224F0A00343EA011182617F
:10148000016210BD30B5046A24F01004046284695E
:10149000056A24F4407444EA022222F470444FF6B0
:1014A000FF7202EA03322243A02425F0A00304EADB
:1014B000011119438261016230BDFEE702E008C8F4
:1014C000121F08C1002AFAD170477047002001E0BE
:1014D00001C1121F002AFBD17047000008B5FEF7BA
:1014E00089FFFFF7A2FE0D48C16C41F00101C16404
:1014F000C06C00F001000090FFF704FE00210848D6
:10150000FFF706FD0749064A4FF47A750024106874
:10151000436A0B60AB42FAD94462F8E7001002401C
:10152000100000200000002000000000000000006B
:101530000102030406070809A0860100400D03000C
:10154000801A060000350C0040420F0080841E0007
:1015500000093D0000127A000024F40000366E01FC
:101560000048E801006CDC0288150008000000203B
:1015700010000000BC14000898150008100000209E
:1015800040040000CC14000800000000000000002F
:081590000000000000093D000D
:040000050800018965
:00000001FF
